:020000040800F2
:1000000070060020290200083102000833020008AF
:10001000350200083702000839020008000000001D
:100020000000000000000000000000003B0200088B
:100030003D020008000000003F020008E302000843
:10004000430200084302000843020008430200087C
:10005000430200084302000843020008430200086C
:10006000430200084302000843020008430200085C
:10007000430200084302000843020008430200084C
:10008000430200084302000843020008430200083C
:10009000430200084302000843020008430200082C
:1000A000430200084302000843020008430200081C
:1000B000430200084302000843020008430200080C
:1000C00043020008430200084302000843020008FC
:1000D00043020008430200084302000843020008EC
:1000E00043020008430200084302000843020008DC
:1000F00043020008430200084302000843020008CC
:1001000043020008430200084302000843020008BB
:1001100043020008430200084302000843020008AB
:10012000430200084302000843020008430200089B
:10013000430200084302000843020008430200088B
:10014000430200084302000843020008430200087B
:10015000430200084302000843020008430200086B
:10016000430200084302000843020008430200085B
:10017000430200084302000843020008430200084B
:10018000430200084302000800F002F800F03CF8C7
:100190000AA090E8000C82448344AAF10107DA45E2
:1001A00001D100F031F8AFF2090EBAE80F0013F0F8
:1001B000010F18BFFB1A43F001031847900200001B
:1001C000B0020000103A24BF78C878C1FAD85207AC
:1001D00024BF30C830C144BF04680C6070470000C1
:1001E0000023002400250026103A28BF78C1FBD840
:1001F000520728BF30C148BF0B6070471FB500F0E1
:1002000018F91FBD10B510BD00F031F81146FFF709
:10021000F5FF00F00BF900F04FF803B4FFF7F2FF21
:1002200003BC00F057F80000094880470948004720
:10023000FEE7FEE7FEE7FEE7FEE7FEE7FEE7FEE796
:10024000FEE7FEE704480549054A064B70470000F3
:1002500031030008890100087000002070060020AA
:10026000700200207002002070477047704775468A
:1002700000F02CF8AE4605006946534620F0070012
:10028000854618B020B5FFF7DDFFBDE820404FF0F0
:1002900000064FF000074FF000084FF0000BAC468F
:1002A000ACE8C009ACE8C009ACE8C009ACE8C009DA
:1002B00021F007018D46704710B50446AFF300806A
:1002C0002046BDE81040FFF7A8BF00000048704777
:1002D0000800002001491820ABBEFEE726000200FE
:1002E000704740F26800C2F200000168013101600D
:1002F000704740F20000C2F20000006844F6D3519B
:10030000C1F26201A0FB01014FF0FF3000EB911040
:100310004EF21001CEF2000148604EF62350CEF2AC
:100320000000F022027000208860072008607047FB
:1003300082B04EF6085CCEF2000CDCF8802043F66A
:10034000000142F47002C4F20201CCF880200A6875
:100350004FF6FF7042F001020A6000228A600B68CB
:10036000CFF6F6601840086043F21000C2F2004079
:100370004860086820F480200860CA6001920092FA
:10038000086840F480300860086800F4003000908D
:10039000019801300190009818B90198B0F5A06F4C
:1003A000F2D10868800354BF00200120009000981B
:1003B000012834D1086C40F08050086447F20000F6
:1003C000C4F20000026842F440420260886888601B
:1003D000886840F400408860886840F4A0508860D5
:1003E00045F21940C0F240704860086840F08070E3
:1003F000086000BF08688001FCD540F20570C1F8B4
:100400000004886820F003008860886840F00200DB
:10041000886000BF886800F00C000828FAD14FF00F
:100420000060CCF8000002B070470000FFF761FFE9
:10043000FEE7F1EE100A4FF6FF71C0F2C03120EA7C
:10044000010040F04070E1EE100A704770040008AF
:100450000000002008000000C40100087804000823
:100460000800002068060000E0010008000000000D
:08047000007A030A00000000FD
:040000050800018965
:00000001FF
